{
  "contractName": "Migrations",
  "abi": [
    {
      "constant": false,
      "inputs": [
        {
          "internalType": "address",
          "name": "_address",
          "type": "address"
        },
        {
          "internalType": "uint256",
          "name": "pres",
          "type": "uint256"
        },
        {
          "internalType": "uint256",
          "name": "vicepres",
          "type": "uint256"
        },
        {
          "internalType": "uint256",
          "name": "gensec",
          "type": "uint256"
        }
      ],
      "name": "castVote",
      "outputs": [],
      "payable": false,
      "stateMutability": "nonpayable",
      "type": "function"
    },
    {
      "constant": true,
      "inputs": [],
      "name": "totalVotesF",
      "outputs": [
        {
          "internalType": "uint256",
          "name": "",
          "type": "uint256"
        }
      ],
      "payable": false,
      "stateMutability": "view",
      "type": "function"
    }
  ],
  "bytecode": "0x608060405234801561001057600080fd5b50610297806100206000396000f3fe608060405234801561001057600080fd5b50600436106100365760003560e01c806307c048121461003b578063e20b7d9814610059575b600080fd5b6100436100bb565b6040518082815260200191505060405180910390f35b6100b96004803603608081101561006f57600080fd5b81019080803573ffffffffffffffffffffffffffffffffffffffff1690602001909291908035906020019092919080359060200190929190803590602001909291905050506100c4565b005b60008054905090565b600760008573ffffffffffffffffffffffffffffffffffffffff1673ffffffffffffffffffffffffffffffffffffffff16815260200190815260200160002060000160009054906101000a900460ff1615610187576040517f08c379a00000000000000000000000000000000000000000000000000000000081526004018080602001828103825260148152602001807f616c726561647920766f74656420706572736f6e00000000000000000000000081525060200191505060405180910390fd5b6001600760008673ffffffffffffffffffffffffffffffffffffffff1673ffffffffffffffffffffffffffffffffffffffff16815260200190815260200160002060000160006101000a81548160ff02191690831515021790555060046000848152602001908152602001600020600081548092919060010191905055506005600083815260200190815260200160002060008154809291906001019190505550600660008281526020019081526020016000206000815480929190600101919050555060008081548092919060010191905055505050505056fea265627a7a72315820737b8da92892dc31373683909236349c0beffa6ad6b31d9e0da2bd15870ecd4b64736f6c63430005100032",
  "source": "// SPDX-License-Identifier: MIT\npragma solidity >=0.4.22 <0.9.0;\n\ncontract Migrations {\n  // Defining a structure with boolean  \n      // variables authoried and voted\n      struct Voter{\n          bool voted;\n      }\n  \n      // Declaring the unsigned integer \n      // variables totalVotes, and for the \n      //3 teams\n      uint  totalVotes;\n      uint teamA; \n      uint  teamB; \n      uint teamC;\n      //mapping[] memory Vote = new mapping[](3);\n      // Creating a mapping for the total Votes\n      mapping(uint=>uint) President;\n      mapping(uint=>uint) VicePresident; \n      mapping(uint=>uint) GenSec;\n      mapping(address=>Voter) info;\n\n      // Defining a function to check and \n      // skip the code if the person is already \n      // voted else allow to vote and \n      // calculate totalvotes for team A   \n      function castVote(address _address , uint pres , uint vicepres , uint gensec ) public { \n        require(\n        !info[_address].voted, \n        \"already voted person\");\n        info[_address].voted = true;\n        President[pres]++;\n        VicePresident[vicepres]++;\n        GenSec[gensec]++;\n        totalVotes++;\n      }\n  \n  \n      function totalVotesF() public view returns(uint){\n          return totalVotes;\n      }\n}\n",
  "sourcePath": "/home/kishore/Mini_Project/e-voting/frontend/contracts/Migrations.sol",
  "compiler": {
    "name": "solc",
    "version": "0.5.16+commit.9c3226ce.Emscripten.clang"
  },
  "schemaVersion": "3.3.4",
  "updatedAt": "2021-04-29T10:15:57.443Z",
  "devdoc": {
    "methods": {}
  },
  "userdoc": {
    "methods": {}
  }
}